:020000040000FA
:100000008316031388018316031386013F3086008D
:1000100083120313A00183160317890183120313AC
:100020008801831203130A30A4002408AA20A40B19
:100030001628831203132008831203138800202834
:100040009B2083120313061C061827284C289B208C
:1000500083120313861C86182E285D289B2083128A
:100060000313061D061920286E2883120313880126
:10007000831203130830A50005309420880DA50BCA
:100080003C280830A50005309420880CA50B432897
:100090008312031303100800831203132008013E88
:1000A000A00083120313031C0318352083120313CB
:1000B00020088312031388007F288312031320086B
:1000C0000A3EA00083120313031C03183520831279
:1000D0000313200883120313880086288312031356
:1000E0002008643EA00083120313031C031835206C
:1000F0008312031320088312031388008D289B208A
:10010000831203130618061C7F2820289B208312C5
:1001100003138618861C862820289B20831203132D
:100120000619061D8D28202883120313A1009B2089
:10013000A10B972808000E30A2002830A300A20BC4
:10014000A228A30B9F28A428000008009B209B2026
:100150009B2008008312031308100A30942008140F
:060160000A3094200800A3
:04016600003400342D
:02400E00C220CE
:02401000FF3E71
:00000001FF
