:020000040000FA
:100000008316031388018316031386013F3086008D
:1000100083120313A00183160317890183120313AC
:100020008801831203130A30A40024087A20A40B49
:100030001628831203132008831203138800202834
:100040006B2083120313061C0618272835286B2003
:1000500083120313861C86182E283D286B208312DA
:100060000313061D06192028462883120313A00A2D
:1000700020088312031388004F28831203132008DB
:100080000A3EA0008312031388005628831203132C
:100090002008643EA0008312031388005D286B20B3
:1000A000831203130618061C4F2820286B20831286
:1000B00003138618861C562820286B2083120313EE
:1000C0000619061D5D28202883120313A1006B204A
:1000D000A10B672808000E30A2002830A300A20B55
:1000E0007228A30B6F287428000008006B206B2077
:1000F0006B2008008312031308100A3064200814D0
:060100000A306420080033
:04010600003400348D
:02400E00C220CE
:02401000FF3E71
:00000001FF
