:020000040000FA
:100000008316031388018316031386013F3086008D
:1000100083120313A00183160317890183120313AC
:100020008801831203130A30A400162883120313D5
:10003000060883120313880016282408B220A40B94
:100040001E28831203132008831203138800282814
:10005000A32083120313061C06182F285428A3205C
:1000600083120313861C861836286528A320831262
:100070000313061D06192828762883120313880106
:10008000831203130830A50005309C20880DA50BB2
:1000900044280830A50005309C20880CA50B4B286F
:1000A0008312031303100800831203132008013E78
:1000B000A00083120313031C03183D2083120313B3
:1000C0002008831203138800872883120313200853
:1000D0000A3EA00083120313031C03183D20831261
:1000E000031320088312031388008E28831203133E
:1000F0002008643EA00083120313031C03183D2054
:100100008312031320088312031388009528A32069
:10011000831203130618061C87282828A32083129D
:1001200003138618861C8E282828A3208312031305
:100130000619061D9528282883120313A100A32061
:10014000A10B9F2808000E30A2002830A300A20BAC
:10015000AA28A30BA728AC2800000800A320A320EE
:10016000A32008008312031308100A309C200814EF
:060170000A309C2008008B
:04017600003400341D
:02400E00C220CE
:02401000FF3E71
:00000001FF
